:100000000C9445000C9462000C9462000C94620005
:100010000C9462000C9462000C9462000C946200D8
:100020000C9462000C9462000C9462000C946200C8
:100030000C9462000C9462000C9462000C946200B8
:100040000C9462000C9462000C9462000C946200A8
:100050000C9462007375636373657366756C0077E7
:10006000726F6E672070617373776F7264002A001D
:1000700025640020002564003031323334353637B2
:100080003839414243444546000011241FBECFE5A4
:10009000D4E0DEBFCDBF11E0A0E6B0E0E8E8F8E0D4
:1000A00002C005900D92A832B107D9F721E0A8E26D
:1000B000B1E001C01D92A233B207E1F70E944B02EA
:1000C0000C9442040C940000D898D998DA98D09AED
:1000D000D19AD29A14BA8FEF85BB0895D89814BAE2
:1000E0008FEF85BBD99ADA9A0000000000009F9B31
:1000F0000CC0DA98000000000000000000000000C2
:10010000DA9A000000000000EFCFDA980895CF934C
:10011000C82F0E946E00D898D998DA9A8FEF84BBC6
:10012000C5BB000000000000000000000000DA98DD
:1001300014BA85BBCF910895CF93C82F0E946E004B
:10014000D89AD998DA9A8FEF84BBC5BB000000001B
:100150000000000000000000DA9814BA85BBCF91BF
:1001600008950E94640088E30E94870081E00E9455
:10017000870087E99AE30197F1F700C0000086E065
:100180000E9487008CE00E94870082E00E94870026
:1001900080E80C94870081E00C948700623031F095
:1001A000633031F0613029F4805C03C08C5E01C0A3
:1001B0008C5A80680C9487000F931F93CF93DF9322
:1001C0008B01880F880F880F805C0E948700E801F0
:1001D000085F1F4F89910E949C00C017D107D1F77B
:1001E000DF91CF911F910F91089580E782BB80B37B
:1001F0008077803751F087E893E10197F1F700C0ED
:10020000000090B381E0903709F480E0089580E722
:1002100082BB90B381E0903709F080E00895CF93DE
:10022000DF930E94F500882359F1E9E6F0E020E031
:1002300030E080E05FE7A1E0B0E052BB42B3BD0137
:10024000022E01C0660F0A94EAF7962F9095942328
:1002500092BBCDEED2E02197F1F700C00000849967
:1002600002C0808106C0859902C0818102C0869B40
:1002700082812F5F3F4F339624303105F1F600C065
:10028000DF91CF910895EF92FF920F931F93CF9339
:100290007C01C0E005E710E061E08C2F0E94CE00F9
:1002A000F70181917F011F928F931F930F9381E03C
:1002B0008F930E948B03CF5F0F900F900F900F9042
:1002C0000F90C83049F7CF911F910F91FF90EF9099
:1002D00008959F92AF92BF92CF92DF92EF92FF92DA
:1002E0000F931F93CF93DF93EC015B010E94CB0030
:1002F00060E080E00E94CE00CE010E9475030E9463
:1003000007018823E1F3C0E080E7E82E80E0F82EC3
:100310000EE610E093E7C92E90E0D92E0E940F015F
:10032000D82F8823D9F3833231F40E940701882320
:10033000E1F38C2F53C08A3219F50E940F018A32E3
:1003400061F483EC99E00197F1F700C0000093E6B7
:10035000991609F443C09394F0CFC15061E08C2FFB
:100360000E94CE00DF92CF9281E08F930E948B0398
:100370000F900F900F900E9407018823E1F3CECFDA
:1003800061E08C2F0E94CE00F501EC0FF11DD083AF
:100390001F92DF93FF92EF9281E08F930E948B0375
:1003A0000F900F900F900F900F900E9407018823DD
:1003B000E1F38FE493EC0197F1F700C0000061E0F6
:1003C0008C2F0E94CE001F930F9381E08F930E9489
:1003D0008B03CF5F0F900F900F90A0CFDF91CF9145
:1003E0001F910F91FF90EF90DF90CF90BF90AF9053
:1003F0009F900895CF93DF93CFE5D0E06AE271E05C
:100400008DEC90E00E94690180936800883051F57E
:10041000E0E6F0E0AAE2B1E091918D91981322C05C
:1004200020E0E836F207C1F70E94CB0060E083E0ED
:100430000E94CE0084E590E09F938F9381E08F939C
:100440000E948B032FED83E994E02150804090407F
:10045000E1F700C000000F900F900F90DF91CF9157
:100460000C94CB000E94CB0060E081E00E94CE00A3
:10047000DF93CF9381E08F930E948B032FED83E96D
:1004800094E0215080409040E1F700C000000F90C0
:100490000F900F90B3CFCF93DF93CDB7DEB7C85592
:1004A000D1090FB6F894DEBF0FBECDBF8FE881BB78
:1004B0008F9A97980E94B1008CE990E00E945F03A8
:1004C00088E0E5E7F0E0DE01AF5ABF4F01900D9202
:1004D0008A95E1F788E0EDE7F0E0DE01A75BBF4F2A
:1004E00001900D928A95E1F788E0E5E8F0E0DE0101
:1004F000AF5BBF4F01900D928A95E1F7BE016F5A35
:100500007F4F80E00E94DC00BE01675B7F4F81E08F
:100510000E94DC00BE016F5B7F4F82E00E94DC0026
:1005200080E4EDE8F0E0DE01119601900D928A95ED
:10053000E1F780E690E00E9443012FE73AE186E090
:10054000215030408040E1F700C000000E94FA01D5
:10055000D39ADB9A11E00E940F01883029F0833290
:10056000F9F0823019F50FC0023000F5CA94CD2899
:1005700009F40F5F0E9407018823E1F310E0CC2407
:10058000C394D12C18C0002389F0CD2809F4015060
:100590000E9407018823E1F310E0C12CD12C0BC08D
:1005A0000E9407018823E1F311E005C0113011F02A
:1005B00010E0D1CF10E00E94CB006C2D80E00E94B3
:1005C000CE0080E00E94640360E081E00E94CE00E3
:1005D000E02EF12C81E090E08C0F9D1F20E1029F26
:1005E000800D911D11240E94750361E081E00E943D
:1005F000CE00C701019624E0880F991F2A95E1F7E4
:1006000021E030E02C0F3D1F820F931F0E947503E5
:10061000113071F6C7018C0D9D1D8130910589F156
:100620000CF5892B09F096CF60E670E081EF90E041
:100630000E9469010E94CB0060E080E00E94CE0031
:100640008EEF90E00E94750380E690E00E944301E7
:100650003FEB87E299E0315080409040E1F700C0E5
:10066000000078CF8230910599F0039709F072CF9E
:10067000DB980E94FA01DB9A00E011E0C12CD12C3A
:100680006ACF0E94CB008FE091E00E94750362CF99
:100690000E94CB0060E080E00E94CE0089E191E002
:1006A0000E94750361E080E00E94CE0080E690E049
:1006B0000E9443010E940F018A32E1F74BCF9093D1
:1006C0002901809328010895CF93C82F8A3031F4EF
:1006D000E0912801F09129018DE00995E091280130
:1006E000F09129018C2FCF910994CF93DF9300973C
:1006F00039F0EC018991882319F00E946403FACF44
:10070000DF91CF9108958F70E82FF0E0E858FF4F08
:1007100084910C9464034F925F926F927F928F92B8
:100720009F92AF92BF92CF92DF92EF92FF920F9380
:100730001F93CF93DF93CDB7DEB7EC89FD897E01A0
:1007400026E1E20EF11C3AE0632E712C3B89332343
:1007500081F08F010F5F1F4F8491853289F08823CC
:1007600009F469C00E946403570168017501F6012C
:10077000EDCF8081853259F08F010F5F1F4FEFCF92
:100780006F0182E0C80ED11CF801849105C06F0191
:1007900022E0C20ED11C81818436A1F0883761F03D
:1007A000833631F4F701808197012E5F3F4F790145
:1007B0000E9464035701DACF20E1822E912C00E0E1
:1007C00010E105C09AE0892E912C00E117E2570153
:1007D00032E0A30EB11CF701E080F1808436D1F441
:1007E000F7FE06C0F194E194F1088DE20E946403E3
:1007F000E016F10678F4C801B3010E942E048B01C3
:1008000062307105A8F7C7010E942E04862F0E944E
:100810008303ACCFC701B8010E942E042C01862FA0
:100820000E9483037201C801B4010E942E048B014F
:10083000672B81F79BCF80E090E0DF91CF911F91F4
:100840000F91FF90EF90DF90CF90BF90AF909F906F
:100850008F907F906F905F904F900895AA1BBB1B65
:1008600051E107C0AA1FBB1FA617B70710F0A61BB0
:10087000B70B881F991F5A95A9F780959095BC01D1
:08088000CD010895F894FFCFAB
:100888000101010101010101080102030405060734
:1008980008092A002310181C1E1C181000040E1F1B
:1008A8000000000000000000001F0E040043686103
:1008B8006E67652050570000000000000042656523
:1008C8007020537461747573000000000053686FE2
:1008D800772043757272656E74205057004C6F67AD
:1008E800206F7574000000000000000000456E7461
:1008F800657220505720204F4B3D3E2300206275E3
:100908007A7A657220206F6E2F6F6666006F6E2090
:1009180000656E746572206E657720505700796F98
:100928007572206E6577205057206973203A0074DD
:1009380068697320697320310043757272656E743B
:080948002050572069733A00AA
:00000001FF
