:100000000C9446000C9463000C9463000C94630001
:100010000C9463000C9463000C9463000C946300D4
:100020000C9463000C9463000C9463000C946300C4
:100030000C9463000C9463000C9463000C946300B4
:100040000C9463000C9463000C9463000C946300A4
:100050000C94630025640073756363736573667540
:100060006C0077726F6E672070617373776F726464
:10007000002564002A00256400200030313233342A
:1000800035363738394142434445460011241FBEB6
:10009000CFE5D4E0DEBFCDBF10E0A0E6B0E0E0E702
:1000A000F6E002C005900D92A438B107D9F720E020
:1000B000A4E8B0E001C01D92A638B207E1F70E94A3
:1000C000AF010C9436030C940000D898D998DA98B4
:1000D000D09AD19AD29A14BA8FEF85BB0895D89846
:1000E00014BA8FEF85BBD99ADA9A0000000000009D
:1000F0009F9B0CC0DA980000000000000000000088
:100100000000DA9A000000000000EFCFDA980895AE
:10011000CF93C82F0E946F00D898D998DA9A8FEFA2
:1001200084BBC5BB00000000000000000000000010
:10013000DA9814BA85BBCF910895CF93C82F0E9447
:100140006F00D89AD998DA9A8FEF84BBC5BB0000AC
:1001500000000000000000000000DA9814BA85BB1F
:10016000CF9108950E94650088E30E94880081E095
:100170000E94880087E99AE30197F1F700C0000028
:1001800086E00E9488008CE00E94880082E00E9445
:10019000880080E80C94880081E00C94880062302C
:1001A00031F0633031F0613029F4805C03C08C5E43
:1001B00001C08C5A80680C94880080E782BB80B3B1
:1001C0008077803751F087E893E10197F1F700C01D
:1001D000000090B381E0903709F480E0089580E753
:1001E00082BB90B381E0903709F080E00895CF930F
:1001F000DF930E94DD00882359F1E0E6F0E020E083
:1002000030E080E05FE7A1E0B0E052BB42B3BD0167
:10021000022E01C0660F0A94EAF7962F9095942358
:1002200092BBCDEED2E02197F1F700C00000849997
:1002300002C0808106C0859902C0818102C0869B70
:1002400082812F5F3F4F339624303105F1F600C095
:10025000DF91CF9108958F929F92AF92BF92CF92EC
:10026000DF92EF92FF920F931F93CF93DF93EC01F6
:100270004B0160E080E00E94CF00CE010E94690245
:10028000C0E086E7C82E80E0D82E94E7E92E90E003
:10029000F92E29E7A22E20E0B22E0E94F700D82FD7
:1002A000082F10E001151105C1F30332110529F4DF
:1002B0000E94EF008823E1F344C00A32110599F44B
:1002C000C15061E08C2F0E94CF00BF92AF9281E0BD
:1002D0008F930E947F020F900F900F900E94EF006B
:1002E0008823E1F3DACF61E08C2F0E94CF00F40184
:1002F000EC0FF11DD0831F93DF93DF92CF9281E04B
:100300008F930E947F020F900F900F900F900F908D
:100310000E94EF008823E1F38FE493EC0197F1F75B
:1003200000C0000061E08C2F0E94CF00FF92EF928E
:1003300081E08F930E947F02CF5F0F900F900F900C
:10034000ACCF8C2FDF91CF911F910F91FF90EF9049
:10035000DF90CF90BF90AF909F908F900895CF93F4
:10036000DF93CDB7DEB760970FB6F894DEBF0FBE50
:10037000CDBF8FE881BB8F9A979888E0ECE6F0E0DC
:10038000DE01199601900D928A95E1F788E0ECE67E
:10039000F0E0DE01119601900D928A95E1F70E943E
:1003A000B2008DE990E00E9453027E0129E0E20E46
:1003B000F11C01E081E7A82E80E0B82E92E6C92E5C
:1003C00090E0D92EB70184E790E00E942B0188309D
:1003D00061F4FE013196D70191918D91981305C07A
:1003E000EE15FF05C9F711E001C010E00E94CC0036
:1003F00060E08AE00E94CF001F921F93BF92AF92ED
:100400000F930E947F020F900F900F900F900F900C
:10041000111118C00E94CC0060E080E00E94CF0063
:10042000DF92CF920F930E947F028FE39DE023E043
:10043000815090402040E1F700C000000F900F90E5
:100440000F90C0CF0E94CC0060E080E00E94CF00FF
:1004500087E590E09F938F9381E08F930E947F02C6
:100460008FE79AE126E0815090402040E1F700C0FC
:1004700000000F900F900F9004E510E0FF24F3941C
:1004800060E080E00E94CF000E94F7001F928F93EF
:100490001F930F93FF920E947F020F900F900F9077
:1004A0000F900F90EDCF9093850080938400089576
:1004B000CF93C82F8A3031F4E0918400F091850009
:1004C0008DE00995E0918400F09185008C2FCF910B
:1004D0000994CF93DF93009739F0EC018991882339
:1004E00019F00E945802FACFDF91CF9108958F70D2
:1004F000E82FF0E0E558FF4F84910C9458024F929A
:100500005F926F927F928F929F92AF92BF92CF92A3
:10051000DF92EF92FF920F931F93CF93DF93CDB7AC
:10052000DEB7EC89FD897E0126E1E20EF11C3AE09E
:10053000632E712C3B89332381F08F010F5F1F4F96
:100540008491853289F0882309F469C00E94580299
:10055000570168017501F601EDCF8081853259F0B0
:100560008F010F5F1F4FEFCF6F0182E0C80ED11CCC
:10057000F801849105C06F0122E0C20ED11C818177
:100580008436A1F0883761F0833631F4F701808139
:1005900097012E5F3F4F79010E9458025701DACF31
:1005A00020E1822E912C00E010E105C09AE0892E16
:1005B000912C00E117E2570132E0A30EB11CF701C4
:1005C000E080F1808436D1F4F7FE06C0F194E19426
:1005D000F1088DE20E945802E016F10678F4C80195
:1005E000B3010E9422038B0162307105A8F7C70195
:1005F0000E942203862F0E947702ACCFC701B80168
:100600000E9422032C01862F0E9477027201C801EA
:10061000B4010E9422038B01672B81F79BCF80E0FE
:1006200090E0DF91CF911F910F91FF90EF90DF90BD
:10063000CF90BF90AF909F908F907F906F905F9082
:100640004F900895AA1BBB1B51E107C0AA1FBB1FF7
:10065000A617B70710F0A61BB70B881F991F5A954E
:10066000A9F780959095BC01CD010895F894FFCF2E
:100670000102030405060708092A002301010101FC
:1006800001010101456E74657220505720204F4BC7
:040690003D3E2300C8
:00000001FF
