:100000000C9445000C9462000C9462000C94620005
:100010000C9462000C9462000C9462000C946200D8
:100020000C9462000C9462000C9462000C946200C8
:100030000C9462000C9462000C9462000C946200B8
:100040000C9462000C9462000C9462000C946200A8
:100050000C94620025640073756363736573667541
:100060006C0077726F6E672070617373776F726464
:10007000002A002564002000303132333435363711
:100080003839414243444546000011241FBECFE5A4
:10009000D4E0DEBFCDBF10E0A0E6B0E0EAEAF6E0D3
:1000A00002C005900D92AE38B107D9F720E0AEE856
:1000B000B0E001C01D92A039B207E1F70E94190219
:1000C0000C9453030C940000D898D998DA98D09ADD
:1000D000D19AD29A14BA8FEF85BB0895D89814BAE2
:1000E0008FEF85BBD99ADA9A0000000000009F9B31
:1000F00010C0DA98000000000000000000000000BE
:10010000DA9A0000000000000000000000009F9943
:10011000F0CFDA980895CF93C82F0E946E00D89838
:10012000D998DA9A8FEF84BBC5BB000000000000AD
:10013000000000000000DA9814BA85BBCF91089542
:10014000CF93C82F0E946E00D89AD998DA9A8FEF71
:1001500084BBC5BB000000000000000000000000E0
:10016000DA9814BA85BBCF9108950E94640088E3A1
:100170000E948B0081E00E948B0087E99AE301973F
:10018000F1F700C0000086E00E948B008CE00E9426
:100190008B0082E00E948B0080E80E948B00089513
:1001A00081E00E948B000895623031F0633031F0BD
:1001B000613029F4805C03C08C5E01C08C5A806879
:1001C0000E948B00089580E782BB80B380778037E0
:1001D00061F087E893E10197F1F700C0000090B368
:1001E00081E0903719F480E0089580E0089580E779
:1001F00082BB90B381E0903709F080E00895CF93FF
:10020000DF930E94E300882361F1E1E7F0E020E062
:1002100030E080E05FE7A1E0B0E052BB42B3BD0157
:10022000022E02C0660F771F0A94E2F7962F909570
:10023000942392BBCDEED2E02197F1F700C00000ED
:10024000849902C0808106C0859902C0818102C064
:10025000869B82812F5F3F4F339624303105E9F62C
:1002600000C0DF91CF910895241314C0FC013081A8
:10027000FB012081321310C0FC013196DB01119685
:10028000089631912D91321309C0E817F907C9F783
:1002900081E0089580E0089580E0089580E0089569
:1002A000AF92BF92CF92DF92EF92FF920F931F9384
:1002B000CF93DF93EC016B0160E080E00E94D400FB
:1002C000CE010E945202D0E00F2EF3E7EF2EF0E0B5
:1002D000FF2EF02D01E710E00F2EF6E7AF2EF0E035
:1002E000BF2EF02D0E94FF00C82F8823D9F3833240
:1002F00029F40E94F7008823E1F343C08A3299F47D
:10030000D15061E08D2F0E94D400BF92AF9281E066
:100310008F930E946C020F900F900F900E94F70035
:100320008823E1F3DFCF61E08D2F0E94D400F60136
:10033000ED0FF11DC0831F92CF93FF92EF9281E0EA
:100340008F930E946C020F900F900F900F900F9060
:100350000E94F7008823E1F38FE493EC0197F1F713
:1003600000C0000061E08D2F0E94D4001F930F9306
:1003700081E08F930E946C02DF5F0F900F900F90CF
:10038000B1CF8D2FDF91CF911F910F91FF90EF9003
:10039000DF90CF90BF90AF900895CF93DF93C2E6E8
:1003A000D0E068E670E08DE790E00E945001809315
:1003B0007000282F48E068E670E080E690E00E9438
:1003C0003401811119C00E94D00060E081E00E94D8
:1003D000D400DF93CF9381E08F930E946C029FED56
:1003E00023E984E0915020408040E1F700C0000004
:1003F0000F900F900F90D5CF0E94D00060E083E067
:100400000E94D40087E590E09F938F9381E08F93C3
:100410000E946C029FED23E984E0915020408040CF
:10042000E1F700C000000F900F900F90DF91CF9187
:1004300008958FE881BB8F9A97980E94B50080EA53
:1004400090E00E943B020E94CD01C4E5D0E011E0A3
:1004500060E080E00E94D4000E94FF001F928F9312
:10046000DF93CF931F930E946C020F900F900F9019
:100470000F900F90EDCF90938F0080938E00089592
:10048000CF93C82F8A3031F4E0918E00F0918F0025
:100490008DE00995E0918E00F0918F008C2F0995E9
:1004A000CF910895CF93DF93EC01892B49F0888198
:1004B000882331F021960E94400289918111FBCF5F
:1004C000DF91CF9108958F70E82FF0E0E858FF4F4B
:1004D00084910E94400208952F923F924F925F9222
:1004E0006F927F928F929F92AF92BF92CF92DF9244
:1004F000EF92FF920F931F93CF93DF93CDB7DEB7A9
:100500007D88CE88DF884E0128E1820E911C512C17
:10051000612C412C06C0882309F48DC00E94400242
:100520006801772041F086010F5F1F4FF60184912B
:10053000853289F708C0F6018081853251F0860145
:100540000F5F1F4FE8CFF2E0CF0ED11CF80184916E
:1005500006C0F601818196012E5F3F4F6901843606
:1005600071F0883709F459C0833631F4F401808181
:1005700094012E5F3F4F49010E944002D2CFF40107
:10058000E080F18032E0830E911CFF2034F4F1947E
:10059000E194F1088DE20E94400280E1E81687E2D2
:1005A000F806D0F400E117E29801ADECBCEC0E9433
:1005B00044038C0116950795169507951695079592
:1005C0000230110588F0E016F10670F30F2EFAE004
:1005D0002F2EF02D352C0DC00F2EFAE02F2EF02DE2
:1005E000352C00E117E205C00F2EFAE02F2EF02D7A
:1005F000352CC701B8010E943003A82EB92E862FD2
:100600000E946302EA2CFB2CC801622D732D0E940C
:1006100030038B01672B69F784CFF401E080F18010
:1006200094012E5F3F4F49016894222424F8362C10
:10063000042D10E1DECF80E090E0DF91CF911F919B
:100640000F91FF90EF90DF90CF90BF90AF909F9071
:100650008F907F906F905F904F903F902F90089574
:10066000AA1BBB1B51E107C0AA1FBB1FA617B707D8
:1006700010F0A61BB70B881F991F5A95A9F78095F4
:100680009095BC01CD010895A29FB001B39FC00118
:10069000A39F700D811D1124911DB29F700D811DAE
:0A06A0001124911D0895F894FFCF76
:1006AA000101010101010101010101010101010130
:1006BA00080102030405060708092A0023456E7487
:0E06CA00657220505720204F4B3D3E2300000C
:00000001FF
