:100000000C9445000C9462000C9462000C94620005
:100010000C9462000C9462000C9462000C946200D8
:100020000C9462000C9462000C9462000C946200C8
:100030000C9462000C9462000C9462000C946200B8
:100040000C9462000C9462000C9462000C946200A8
:100050000C9462007375636373657366756C0077E7
:10006000726F6E672070617373776F7264002A001D
:1000700025640020002564003031323334353637B2
:100080003839414243444546000011241FBECFE5A4
:10009000D8E0DEBFCDBF11E0A0E6B0E0E0E0FAE0DE
:1000A00002C005900D92A032B107D9F721E0A0E27D
:1000B000B1E001C01D92A233B207E1F70E947702BE
:1000C0000C94FE040C940000D898D998DA98D09A31
:1000D000D19AD29A14BA8FEF85BB0895D89814BAE2
:1000E0008FEF85BBD99ADA9A0000000000009F9B31
:1000F00010C0DA98000000000000000000000000BE
:10010000DA9A0000000000000000000000009F9943
:10011000F0CFDA980895CF93C82F0E946E00D89838
:10012000D998DA9A8FEF84BBC5BB000000000000AD
:10013000000000000000DA9814BA85BBCF91089542
:10014000CF93C82F0E946E00D89AD998DA9A8FEF71
:1001500084BBC5BB000000000000000000000000E0
:10016000DA9814BA85BBCF9108950E94640088E3A1
:100170000E948B0081E00E948B0087E99AE301973F
:10018000F1F700C0000086E00E948B008CE00E9426
:100190008B0082E00E948B0080E80E948B00089513
:1001A00081E00E948B000895623031F0633031F0BD
:1001B000613029F4805C03C08C5E01C08C5A806879
:1001C0000E948B00089580E782BB80B380778037E0
:1001D00061F087E893E10197F1F700C0000090B368
:1001E00081E0903719F480E0089580E0089580E779
:1001F00082BB90B381E0903709F080E00895CF93FF
:10020000DF930E94E300882361F1E1E6F0E020E063
:1002100030E080E05FE7A1E0B0E052BB42B3BD0157
:10022000022E02C0660F771F0A94E2F7962F909570
:10023000942392BBCDEED2E02197F1F700C00000ED
:10024000849902C0808106C0859902C0818102C064
:10025000869B82812F5F3F4F339624303105E9F62C
:1002600000C0DF91CF910895241314C0FC013081A8
:10027000FB012081321310C0FC013196DB01119685
:10028000089631912D91321309C0E817F907C9F783
:1002900081E0089580E0089580E0089580E0089569
:1002A000EF92FF920F931F93CF937C01C0E005E77D
:1002B00010E061E08C2F0E94D400F70181917F0152
:1002C0001F928F931F930F9381E08F930E94E603F9
:1002D000CF5F0F900F900F900F900F90C83049F79D
:1002E000CF911F910F91FF90EF9008959F92AF9241
:1002F000BF92CF92DF92EF92FF920F931F93CF9313
:10030000DF93EC015B010E94D00060E080E00E947E
:10031000D400CE010E94CC030E94F7008823E1F3B1
:10032000D0E00F2EF3E7CF2EF0E0DF2EF02D0F2ED2
:10033000F0E7EF2EF0E0FF2EF02D0EE610E00E9429
:10034000FF00C82F8823D9F3833231F40E94F700CD
:100350008823E1F38D2F56C08A3231F50BC083EC30
:1003600099E00197F1F700C0000093E6991609F4AF
:1003700049C093940E94FF008A3219F483E68915DC
:1003800070F7D15061E08D2F0E94D400DF92CF92A0
:1003900081E08F930E94E6030F900F900F900E94D0
:1003A000F7008823E1F3CBCF61E08D2F0E94D400CA
:1003B000F501ED0FF11DC0831F92CF93FF92EF92D5
:1003C00081E08F930E94E6030F900F900F900F90A3
:1003D0000F900E94F7008823E1F38FE493EC0197DC
:1003E000F1F700C0000061E08D2F0E94D4001F9340
:1003F0000F9381E08F930E94E603DF5F0F900F90D1
:100400000F909DCFDF91CF911F910F91FF90EF90B3
:10041000DF90CF90BF90AF909F900895CF93DF93E0
:10042000CFE5D0E06AE271E085EC90E00E947601D1
:1004300080936000282F48E06AE271E082E291E058
:100440000E943401811119C00E94D00060E081E057
:100450000E94D400DF93CF9381E08F930E94E60344
:100460009FED23E984E0915020408040E1F700C0F7
:1004700000000F900F900F90D5CF0E94D00060E049
:1004800083E00E94D40084E590E09F938F9381E005
:100490008F930E94E6039FED23E984E09150204072
:1004A0008040E1F700C000000E94D0000F900F9044
:1004B0000F90DF91CF9108950F931F93CF93DF9308
:1004C000883080F48B01880F880F880F805C0E9431
:1004D0008B00E801085F1F4F89910E94A000C017A0
:1004E000D107D1F7DF91CF911F910F910895CF934D
:1004F000DF93CDB7DEB7C855D1090FB6F894DEBF8C
:100500000FBECDBF8FE881BB8F9A97980E94B50030
:1005100080EA90E00E94B50388E0EDE6F0E0DE01BD
:10052000119601900D928A95E1F788E0E5E7F0E0F9
:10053000DE01199601900D928A95E1F788E0EDE7CA
:10054000F0E0DE01519601900D928A95E1F7BE012F
:100550006F5F7F4F80E00E945C02BE01675F7F4F4C
:1005600081E00E945C02BE016F5E7F4F82E00E94CC
:100570005C0280E4E5E8F0E0DE01599601900D921E
:100580008A95E1F748E050E060E070E082E291E0B7
:100590000E94CD0482E291E00E9450012FE73AE1EF
:1005A00086E0215030408040E1F700C000000E940A
:1005B0000E02D39ADB9ADD24D39410E0882483942E
:1005C000912CA12CB12C03C0DD24D39410E00E9407
:1005D000FF00883029F08332E1F0823001F50DC050
:1005E0000230E8F4EA94EF2809F40F5F0E94F70064
:1005F0008823E1F3E82CF92C15C0002381F0EF28C3
:1006000009F401500E94F7008823E1F3EA2CFB2C47
:1006100009C00E94F7008823E1F311E003C021E044
:10062000D2122FC00E94D0006E2D80E00E94D40014
:1006300080E00E94BA0360E081E00E94D400C02EF6
:10064000D12C89E190E08C0F9D1F30E1039F800D3C
:10065000911D11240E94CC0361E081E00E94D4002E
:10066000C601019682959295907F9827807F982762
:1006700029E130E02C0F3D1F820F931F0E94CC0315
:10068000D12C113009F0A3CFC701800F911D81300B
:100690009105A1F11CF4892B41F096CF8230910590
:1006A000B9F1039709F456C08FCF62E271E089EE89
:1006B00090E00E94760148E050E060E070E082E265
:1006C00091E00E94DD040E94D00060E080E00E9482
:1006D000D40086EF90E00E94CC0382E291E00E9479
:1006E00050013FEB87E299E0315080409040E1F7C4
:1006F00000C00000DD24D39410E069CF0E94D00038
:1007000087E091E00E94CC03DD24D39410E05FCF1A
:100710000E94D00060E080E00E94D40081E191E07E
:100720000E94CC0348E050E060E070E082E291E09B
:100730000E94DD0461E080E00E94D40082E291E04A
:100740000E9450010E94FF008A32E1F7DD24D39419
:1007500010E03DCFDB980E940E02DB9A00E0DD2422
:10076000D39410E0EA2CFB2C32CF9093210180939C
:1007700020010895CF93C82F8A3031F4E0912001F1
:10078000F09121018DE00995E0912001F091210186
:100790008C2F0995CF910895CF93DF93EC01892B8E
:1007A00049F08881882331F021960E94BA0389910B
:1007B0008111FBCFDF91CF9108958F70E82FF0E08A
:1007C000E858FF4F84910E94BA0308952F923F92F8
:1007D0004F925F926F927F928F929F92AF92BF9251
:1007E000CF92DF92EF92FF920F931F93CF93DF93FD
:1007F000CDB7DEB77D88CE88DF884E0128E1820E36
:10080000911C512C612C412C06C0882309F48DC009
:100810000E94BA036801772041F086010F5F1F4FE5
:10082000F6018491853289F708C0F601808185320E
:1008300051F086010F5F1F4FE8CFF2E0CF0ED11CC1
:10084000F801849106C0F601818196012E5F3F4F29
:100850006901843671F0883709F459C0833631F460
:10086000F401808194012E5F3F4F49010E94BA0339
:10087000D2CFF401E080F18032E0830E911CFF20A2
:1008800034F4F194E194F1088DE20E94BA0380E11E
:10089000E81687E2F806D0F400E117E29801ADEC23
:1008A000BCEC0E94BE048C01169507951695079521
:1008B000169507950230110588F0E016F10670F3E1
:1008C0000F2EFAE02F2EF02D352C0DC00F2EFAE052
:1008D0002F2EF02D352C00E117E205C00F2EFAE087
:1008E0002F2EF02D352CC701B8010E94AA04A82E86
:1008F000B92E862F0E94DD03EA2CFB2CC801622D45
:10090000732D0E94AA048B01672B69F784CFF40131
:10091000E080F18094012E5F3F4F490168942224CA
:1009200024F8362C042D10E1DECF80E090E0DF913A
:10093000CF911F910F91FF90EF90DF90CF90BF90DC
:10094000AF909F908F907F906F905F904F903F906F
:100950002F900895AA1BBB1B51E107C0AA1FBB1F04
:10096000A617B70710F0A61BB70B881F991F5A953B
:10097000A9F780959095BC01CD010895A29FB00183
:10098000B39FC001A39F700D811D1124911DB29FC3
:10099000700D811D1124911D0895DC01CB01FC0116
:1009A000E199FECF06C0FFBBEEBBE09A31960DB2D7
:1009B0000D9241505040B8F70895DC01A40FB51FC7
:1009C0004150504048F0CB01840F951F2E910E945A
:1009D000EE0441505040D0F70895262FE199FECF04
:1009E0009FBB8EBBE09A01970DB2021631F02DBB72
:1009F0000FB6F894E29AE19A0FBE0895F894FFCFEB
:100A0000080102030405060708092A002310181C20
:100A10001E1C181000040E1F000000000000000043
:100A2000001F0E04004368616E6765205057000088
:100A30000000000000426565702053746174757396
:100A4000000000000053686F772043757272656E76
:100A500074205057004C6F67206F757400000000C1
:100A60000000000000456E74657220505720204F32
:100A70004B3D3E23002062757A7A657220206F6EAE
:100A80002F6F6666006F6E2000656E746572206E53
:100A9000657720505700796F7572206E657720500A
:100AA00057206973203A0074686973206973203194
:100AB0000043757272656E742050572069733A0056
:00000001FF
