S00E0000736F757263652E7372656385
S11300000C942A000C9447000C9447000C9447006D
S11300100C9447000C9447000C9447000C94470040
S11300200C9447000C9447000C9447000C94470030
S11300300C9447000C9447000C9447000C94470020
S11300400C9447000C9447000C9447000C94470010
S11300500C94470011241FBECFE5D4E0DEBFCDBF12
S113006011E0A0E6B0E0E4EAF4E002C005900D92ED
S1130070A431B107D9F721E0A4E1B1E001C01D9298
S1130080A631B207E1F70E9434010C9450020C949B
S11300900000D898D998DA98D09AD19AD29A14BAFA
S11300A08FEF85BB0895D89814BA8FEF85BBD99A82
S11300B0DA9A0000000000009F9B10C0DA9800004C
S11300C000000000000000000000DA9A00000000B8
S11300D000000000000000009F99F0CFDA98089516
S11300E0CF93C82F0E945300D898D998DA9A8FEFEB
S11300F084BBC5BB0000000000000000000000003D
S1130100DA9814BA85BBCF910895CF93C82F0E9473
S11301105300D89AD998DA9A8FEF84BBC5BB0000F4
S113012000000000000000000000DA9814BA85BB4B
S1130130CF9108950E94490088E30E94700081E0F5
S11301400E94700087E99AE30197F1F700C000006C
S113015086E00E9470008CE00E94700082E00E94A1
S1130160700080E80E947000089581E00E94700091
S11301700895623031F0633031F0613029F4805CED
S113018003C08C5E01C08C5A80680E947000089580
S113019080E782BB80B38077803761F087E893E1A2
S11301A00197F1F700C0000090B381E0903719F493
S11301B080E0089580E0089580E782BB90B381E0F9
S11301C0903709F080E00895CF93DF930E94C80030
S11301D0882361F1E0E6F0E020E030E080E05FE7D2
S11301E0A1E0B0E052BB42B3BD01022E02C0660FD3
S11301F0771F0A94E2F7962F9095942392BBCDEE45
S1130200D2E02197F1F700C00000849902C08081F8
S113021006C0859902C0818102C0869B82812F5FBE
S11302203F4F339624303105E9F600C0DF91CF917A
S113023008950F931F93CF93DF93883080F48B013D
S1130240880F880F880F805C0E947000E801085FA7
S11302501F4F89910E948500C017D107D1F7DF9104
S1130260CF911F910F910895CF93DF93CDB7DEB750
S1130270C855D1090FB6F894DEBF0FBECDBF8FE8C5
S113028081BB8F9A97980E949A0085E890E00E941B
S1130290280288E0ECE6F0E0DE01119601900D9270
S11302A08A95E1F788E0E4E7F0E0DE011996019031
S11302B00D928A95E1F788E0ECE7F0E0DE015196D3
S11302C001900D928A95E1F7BE016F5F7F4F80E048
S11302D00E941901BE01675F7F4F81E00E941901EE
S11302E0BE016F5E7F4F82E00E94190180E4E4E862
S11302F0F0E0DE01599601900D928A95E1F7DD2434
S1130300D39410E0BB24B39477247394812C912C60
S1130310A12C02C0DB2C10E00E94E4008530F1F037
S1130320883019F0823001F50DC00230E8F4EA9407
S1130330EF2809F40F5F0E94DC008823E1F3E72C27
S1130340F82C15C0002381F0EF2809F401500E9415
S1130350DC008823E1F3E92CFA2C09C00E94DC00BC
S11303608823E1F31B2D03C031E0D3122FC00E9478
S1130370B5006E2D80E00E94B90080E00E942D023D
S113038060E08B2D0E94B900C02ED12C89E190E051
S11303908C0F9D1F20E1029F800D911D11240E944E
S11303A03F026B2D8B2D0E94B900C60101968295E8
S11303B09295907F9827807F982729E130E02C0F31
S11303C03D1F820F931F0E943F02D12C113009F070
S11303D0A3CFC701800F911D8130910599F01CF4C2
S11303E0892B39F097CF82309105A9F0039739F121
S11303F091CF0E94B50088EE90E00E943F02DB2C72
S113040010E08ACF0E94B50082EF90E00E943F0284
S1130410DB2C10E081CF0E94B5008CEF90E00E94AD
S11304203F023FE78AE196E0315080409040E1F797
S113043000C000000E94B500DB2C10E06DCF0E94CC
S1130440B5008AE091E00E943F02DB2C10E064CF0B
S113045090931501809314010895CF93C82F8A3087
S113046031F4E0911401F09115018DE00995E091CA
S11304701401F09115018C2F0995CF910895CF9314
S1130480DF93EC01892B49F08881882331F0219690
S11304900E942D0289918111FBCFDF91CF910895A4
S10704A0F894FFCFFA
S11304A40102030405060708092A002310181C1E68
S11304B41C181000040E1F000000000000000000BF
S11304C41F0E04004368616E6765205057000000E6
S11304D400000000426565702053746174757300F4
S11304E4000000005749464920436F6E6E656374EB
S11304F4696F6E0050726F67726573730000000059
S113050400000000456E74657220505720204F4B44
S11305143D3E23002062757A7A657220206F6E2F27
S11305246F6666006F6E20007468697320697320B7
S1130534300074686973206973203100574946494F
S11305442069732077726F6E670074686973206919
S107055473203300D9
S9030000FC
